{
  "_format": "hh-sol-artifact-1",
  "contractName": "EnergyMarketplace",
  "sourceName": "contracts/EnergyMarketplace.sol",
  "abi": [
    {
      "anonymous": false,
      "inputs": [
        {
          "indexed": false,
          "internalType": "uint256",
          "name": "id",
          "type": "uint256"
        },
        {
          "indexed": false,
          "internalType": "address",
          "name": "producer",
          "type": "address"
        },
        {
          "indexed": false,
          "internalType": "uint256",
          "name": "amount",
          "type": "uint256"
        },
        {
          "indexed": false,
          "internalType": "uint256",
          "name": "price",
          "type": "uint256"
        }
      ],
      "name": "EnergyListed",
      "type": "event"
    },
    {
      "anonymous": false,
      "inputs": [
        {
          "indexed": false,
          "internalType": "uint256",
          "name": "id",
          "type": "uint256"
        },
        {
          "indexed": false,
          "internalType": "address",
          "name": "consumer",
          "type": "address"
        }
      ],
      "name": "EnergySold",
      "type": "event"
    },
    {
      "inputs": [
        {
          "internalType": "address",
          "name": "",
          "type": "address"
        }
      ],
      "name": "balances",
      "outputs": [
        {
          "internalType": "uint256",
          "name": "",
          "type": "uint256"
        }
      ],
      "stateMutability": "view",
      "type": "function"
    },
    {
      "inputs": [
        {
          "internalType": "uint256",
          "name": "listingId",
          "type": "uint256"
        }
      ],
      "name": "buyEnergy",
      "outputs": [],
      "stateMutability": "payable",
      "type": "function"
    },
    {
      "inputs": [
        {
          "internalType": "uint256",
          "name": "amount",
          "type": "uint256"
        },
        {
          "internalType": "uint256",
          "name": "price",
          "type": "uint256"
        }
      ],
      "name": "listEnergy",
      "outputs": [],
      "stateMutability": "nonpayable",
      "type": "function"
    },
    {
      "inputs": [
        {
          "internalType": "uint256",
          "name": "",
          "type": "uint256"
        }
      ],
      "name": "listings",
      "outputs": [
        {
          "internalType": "uint256",
          "name": "id",
          "type": "uint256"
        },
        {
          "internalType": "address payable",
          "name": "producer",
          "type": "address"
        },
        {
          "internalType": "uint256",
          "name": "amount",
          "type": "uint256"
        },
        {
          "internalType": "uint256",
          "name": "price",
          "type": "uint256"
        },
        {
          "internalType": "bool",
          "name": "sold",
          "type": "bool"
        }
      ],
      "stateMutability": "view",
      "type": "function"
    },
    {
      "inputs": [],
      "name": "nextListingId",
      "outputs": [
        {
          "internalType": "uint256",
          "name": "",
          "type": "uint256"
        }
      ],
      "stateMutability": "view",
      "type": "function"
    },
    {
      "inputs": [],
      "name": "withdraw",
      "outputs": [],
      "stateMutability": "nonpayable",
      "type": "function"
    }
  ],
  "bytecode": "0x60806040526000600255348015601457600080fd5b50610bb2806100246000396000f3fe6080604052600436106100555760003560e01c806327e235e31461005a5780633ccfd60b14610097578063aaccf1ec146100ae578063bc8a251f146100d9578063c8a9fb5e146100f5578063de74e57b1461011e575b600080fd5b34801561006657600080fd5b50610081600480360381019061007c91906106db565b61015f565b60405161008e9190610721565b60405180910390f35b3480156100a357600080fd5b506100ac610177565b005b3480156100ba57600080fd5b506100c361028d565b6040516100d09190610721565b60405180910390f35b6100f360048036038101906100ee9190610768565b610293565b005b34801561010157600080fd5b5061011c60048036038101906101179190610795565b6104b6565b005b34801561012a57600080fd5b5061014560048036038101906101409190610768565b610605565b604051610156959493929190610811565b60405180910390f35b60016020528060005260406000206000915090505481565b6000600160003373ffffffffffffffffffffffffffffffffffffffff1673ffffffffffffffffffffffffffffffffffffffff168152602001908152602001600020549050600081116101fe576040517f08c379a00000000000000000000000000000000000000000000000000000000081526004016101f5906108c1565b60405180910390fd5b6000600160003373ffffffffffffffffffffffffffffffffffffffff1673ffffffffffffffffffffffffffffffffffffffff168152602001908152602001600020819055503373ffffffffffffffffffffffffffffffffffffffff166108fc829081150290604051600060405180830381858888f19350505050158015610289573d6000803e3d6000fd5b5050565b60025481565b60008082815481106102a8576102a76108e1565b5b906000526020600020906005020190508060040160009054906101000a900460ff161561030a576040517f08c379a00000000000000000000000000000000000000000000000000000000081526004016103019061095c565b60405180910390fd5b8060010160009054906101000a900473ffffffffffffffffffffffffffffffffffffffff1673ffffffffffffffffffffffffffffffffffffffff163373ffffffffffffffffffffffffffffffffffffffff160361039c576040517f08c379a0000000000000000000000000000000000000000000000000000000008152600401610393906109c8565b60405180910390fd5b806003015434146103e2576040517f08c379a00000000000000000000000000000000000000000000000000000000081526004016103d990610a34565b60405180910390fd5b60018160040160006101000a81548160ff02191690831515021790555034600160008360010160009054906101000a900473ffffffffffffffffffffffffffffffffffffffff1673ffffffffffffffffffffffffffffffffffffffff1673ffffffffffffffffffffffffffffffffffffffff16815260200190815260200160002060008282546104729190610a83565b925050819055507fff9dc6ae0f4f78c80d404e887ea31421d9934264a5a59a2aeb5fbd2976526c8f82336040516104aa929190610ac6565b60405180910390a15050565b60006040518060a0016040528060025481526020013373ffffffffffffffffffffffffffffffffffffffff1681526020018481526020018381526020016000151581525090806001815401808255809150506001900390600052602060002090600502016000909190919091506000820151816000015560208201518160010160006101000a81548173ffffffffffffffffffffffffffffffffffffffff021916908373ffffffffffffffffffffffffffffffffffffffff160217905550604082015181600201556060820151816003015560808201518160040160006101000a81548160ff02191690831515021790555050507fdce237255d5bd98b57c816861c3b76c8e47e10382084f482135e29cb83a534be6002543384846040516105e19493929190610aef565b60405180910390a1600260008154809291906105fc90610b34565b91905055505050565b6000818154811061061557600080fd5b90600052602060002090600502016000915090508060000154908060010160009054906101000a900473ffffffffffffffffffffffffffffffffffffffff16908060020154908060030154908060040160009054906101000a900460ff16905085565b600080fd5b600073ffffffffffffffffffffffffffffffffffffffff82169050919050565b60006106a88261067d565b9050919050565b6106b88161069d565b81146106c357600080fd5b50565b6000813590506106d5816106af565b92915050565b6000602082840312156106f1576106f0610678565b5b60006106ff848285016106c6565b91505092915050565b6000819050919050565b61071b81610708565b82525050565b60006020820190506107366000830184610712565b92915050565b61074581610708565b811461075057600080fd5b50565b6000813590506107628161073c565b92915050565b60006020828403121561077e5761077d610678565b5b600061078c84828501610753565b91505092915050565b600080604083850312156107ac576107ab610678565b5b60006107ba85828601610753565b92505060206107cb85828601610753565b9150509250929050565b60006107e08261067d565b9050919050565b6107f0816107d5565b82525050565b60008115159050919050565b61080b816107f6565b82525050565b600060a0820190506108266000830188610712565b61083360208301876107e7565b6108406040830186610712565b61084d6060830185610712565b61085a6080830184610802565b9695505050505050565b600082825260208201905092915050565b7f4e6f2062616c616e636520746f20776974686472617700000000000000000000600082015250565b60006108ab601683610864565b91506108b682610875565b602082019050919050565b600060208201905081810360008301526108da8161089e565b9050919050565b7f4e487b7100000000000000000000000000000000000000000000000000000000600052603260045260246000fd5b7f4c697374696e6720616c726561647920736f6c64000000000000000000000000600082015250565b6000610946601483610864565b915061095182610910565b602082019050919050565b6000602082019050818103600083015261097581610939565b9050919050565b7f43616e6e6f742062757920796f7572206f776e206c697374696e670000000000600082015250565b60006109b2601b83610864565b91506109bd8261097c565b602082019050919050565b600060208201905081810360008301526109e1816109a5565b9050919050565b7f496e636f7272656374207061796d656e74000000000000000000000000000000600082015250565b6000610a1e601183610864565b9150610a29826109e8565b602082019050919050565b60006020820190508181036000830152610a4d81610a11565b9050919050565b7f4e487b7100000000000000000000000000000000000000000000000000000000600052601160045260246000fd5b6000610a8e82610708565b9150610a9983610708565b9250828201905080821115610ab157610ab0610a54565b5b92915050565b610ac08161069d565b82525050565b6000604082019050610adb6000830185610712565b610ae86020830184610ab7565b9392505050565b6000608082019050610b046000830187610712565b610b116020830186610ab7565b610b1e6040830185610712565b610b2b6060830184610712565b95945050505050565b6000610b3f82610708565b91507fffffffffffffffffffffffffffffffffffffffffffffffffffffffffffffffff8203610b7157610b70610a54565b5b60018201905091905056fea26469706673582212206106a2ef7ad4fa9c2c5dd825b003bdd05c5ad39e4d96188a7b212fd16529778464736f6c634300081c0033",
  "linkReferences": {},
  "deployedLinkReferences": {}
}