{
  "_format": "hh-sol-artifact-1",
  "contractName": "EnergyMarketplace",
  "sourceName": "contracts/EnergyMarketplace.sol",
  "abi": [
    {
      "anonymous": false,
      "inputs": [
        {
          "indexed": false,
          "internalType": "uint256",
          "name": "id",
          "type": "uint256"
        },
        {
          "indexed": false,
          "internalType": "address",
          "name": "producer",
          "type": "address"
        },
        {
          "indexed": false,
          "internalType": "uint256",
          "name": "amount",
          "type": "uint256"
        },
        {
          "indexed": false,
          "internalType": "uint256",
          "name": "price",
          "type": "uint256"
        }
      ],
      "name": "EnergyListed",
      "type": "event"
    },
    {
      "anonymous": false,
      "inputs": [
        {
          "indexed": false,
          "internalType": "uint256",
          "name": "id",
          "type": "uint256"
        },
        {
          "indexed": false,
          "internalType": "address",
          "name": "consumer",
          "type": "address"
        }
      ],
      "name": "EnergySold",
      "type": "event"
    },
    {
      "inputs": [
        {
          "internalType": "address",
          "name": "",
          "type": "address"
        }
      ],
      "name": "balances",
      "outputs": [
        {
          "internalType": "uint256",
          "name": "",
          "type": "uint256"
        }
      ],
      "stateMutability": "view",
      "type": "function"
    },
    {
      "inputs": [
        {
          "internalType": "uint256",
          "name": "listingId",
          "type": "uint256"
        }
      ],
      "name": "buyEnergy",
      "outputs": [],
      "stateMutability": "payable",
      "type": "function"
    },
    {
      "inputs": [
        {
          "internalType": "uint256",
          "name": "amount",
          "type": "uint256"
        },
        {
          "internalType": "uint256",
          "name": "price",
          "type": "uint256"
        }
      ],
      "name": "listEnergy",
      "outputs": [],
      "stateMutability": "nonpayable",
      "type": "function"
    },
    {
      "inputs": [
        {
          "internalType": "uint256",
          "name": "",
          "type": "uint256"
        }
      ],
      "name": "listings",
      "outputs": [
        {
          "internalType": "uint256",
          "name": "id",
          "type": "uint256"
        },
        {
          "internalType": "address payable",
          "name": "producer",
          "type": "address"
        },
        {
          "internalType": "uint256",
          "name": "amount",
          "type": "uint256"
        },
        {
          "internalType": "uint256",
          "name": "price",
          "type": "uint256"
        },
        {
          "internalType": "bool",
          "name": "sold",
          "type": "bool"
        }
      ],
      "stateMutability": "view",
      "type": "function"
    },
    {
      "inputs": [],
      "name": "nextListingId",
      "outputs": [
        {
          "internalType": "uint256",
          "name": "",
          "type": "uint256"
        }
      ],
      "stateMutability": "view",
      "type": "function"
    },
    {
      "inputs": [],
      "name": "withdraw",
      "outputs": [],
      "stateMutability": "nonpayable",
      "type": "function"
    }
  ],
  "bytecode": "0x60806040526000600255348015601457600080fd5b50610ab4806100246000396000f3fe6080604052600436106100555760003560e01c806327e235e31461005a5780633ccfd60b14610097578063aaccf1ec146100ae578063bc8a251f146100d9578063c8a9fb5e146100f5578063de74e57b1461011e575b600080fd5b34801561006657600080fd5b50610081600480360381019061007c9190610649565b61015f565b60405161008e919061068f565b60405180910390f35b3480156100a357600080fd5b506100ac610177565b005b3480156100ba57600080fd5b506100c361028d565b6040516100d0919061068f565b60405180910390f35b6100f360048036038101906100ee91906106d6565b610293565b005b34801561010157600080fd5b5061011c60048036038101906101179190610703565b610424565b005b34801561012a57600080fd5b50610145600480360381019061014091906106d6565b610573565b60405161015695949392919061077f565b60405180910390f35b60016020528060005260406000206000915090505481565b6000600160003373ffffffffffffffffffffffffffffffffffffffff1673ffffffffffffffffffffffffffffffffffffffff168152602001908152602001600020549050600081116101fe576040517f08c379a00000000000000000000000000000000000000000000000000000000081526004016101f59061082f565b60405180910390fd5b6000600160003373ffffffffffffffffffffffffffffffffffffffff1673ffffffffffffffffffffffffffffffffffffffff168152602001908152602001600020819055503373ffffffffffffffffffffffffffffffffffffffff166108fc829081150290604051600060405180830381858888f19350505050158015610289573d6000803e3d6000fd5b5050565b60025481565b60008082815481106102a8576102a761084f565b5b906000526020600020906005020190508060040160009054906101000a900460ff161561030a576040517f08c379a0000000000000000000000000000000000000000000000000000000008152600401610301906108ca565b60405180910390fd5b80600301543414610350576040517f08c379a000000000000000000000000000000000000000000000000000000000815260040161034790610936565b60405180910390fd5b60018160040160006101000a81548160ff02191690831515021790555034600160008360010160009054906101000a900473ffffffffffffffffffffffffffffffffffffffff1673ffffffffffffffffffffffffffffffffffffffff1673ffffffffffffffffffffffffffffffffffffffff16815260200190815260200160002060008282546103e09190610985565b925050819055507fff9dc6ae0f4f78c80d404e887ea31421d9934264a5a59a2aeb5fbd2976526c8f82336040516104189291906109c8565b60405180910390a15050565b60006040518060a0016040528060025481526020013373ffffffffffffffffffffffffffffffffffffffff1681526020018481526020018381526020016000151581525090806001815401808255809150506001900390600052602060002090600502016000909190919091506000820151816000015560208201518160010160006101000a81548173ffffffffffffffffffffffffffffffffffffffff021916908373ffffffffffffffffffffffffffffffffffffffff160217905550604082015181600201556060820151816003015560808201518160040160006101000a81548160ff02191690831515021790555050507fdce237255d5bd98b57c816861c3b76c8e47e10382084f482135e29cb83a534be60025433848460405161054f94939291906109f1565b60405180910390a16002600081548092919061056a90610a36565b91905055505050565b6000818154811061058357600080fd5b90600052602060002090600502016000915090508060000154908060010160009054906101000a900473ffffffffffffffffffffffffffffffffffffffff16908060020154908060030154908060040160009054906101000a900460ff16905085565b600080fd5b600073ffffffffffffffffffffffffffffffffffffffff82169050919050565b6000610616826105eb565b9050919050565b6106268161060b565b811461063157600080fd5b50565b6000813590506106438161061d565b92915050565b60006020828403121561065f5761065e6105e6565b5b600061066d84828501610634565b91505092915050565b6000819050919050565b61068981610676565b82525050565b60006020820190506106a46000830184610680565b92915050565b6106b381610676565b81146106be57600080fd5b50565b6000813590506106d0816106aa565b92915050565b6000602082840312156106ec576106eb6105e6565b5b60006106fa848285016106c1565b91505092915050565b6000806040838503121561071a576107196105e6565b5b6000610728858286016106c1565b9250506020610739858286016106c1565b9150509250929050565b600061074e826105eb565b9050919050565b61075e81610743565b82525050565b60008115159050919050565b61077981610764565b82525050565b600060a0820190506107946000830188610680565b6107a16020830187610755565b6107ae6040830186610680565b6107bb6060830185610680565b6107c86080830184610770565b9695505050505050565b600082825260208201905092915050565b7f4e6f2062616c616e636520746f20776974686472617700000000000000000000600082015250565b60006108196016836107d2565b9150610824826107e3565b602082019050919050565b600060208201905081810360008301526108488161080c565b9050919050565b7f4e487b7100000000000000000000000000000000000000000000000000000000600052603260045260246000fd5b7f4c697374696e6720616c726561647920736f6c64000000000000000000000000600082015250565b60006108b46014836107d2565b91506108bf8261087e565b602082019050919050565b600060208201905081810360008301526108e3816108a7565b9050919050565b7f496e636f7272656374207061796d656e74000000000000000000000000000000600082015250565b60006109206011836107d2565b915061092b826108ea565b602082019050919050565b6000602082019050818103600083015261094f81610913565b9050919050565b7f4e487b7100000000000000000000000000000000000000000000000000000000600052601160045260246000fd5b600061099082610676565b915061099b83610676565b92508282019050808211156109b3576109b2610956565b5b92915050565b6109c28161060b565b82525050565b60006040820190506109dd6000830185610680565b6109ea60208301846109b9565b9392505050565b6000608082019050610a066000830187610680565b610a1360208301866109b9565b610a206040830185610680565b610a2d6060830184610680565b95945050505050565b6000610a4182610676565b91507fffffffffffffffffffffffffffffffffffffffffffffffffffffffffffffffff8203610a7357610a72610956565b5b60018201905091905056fea2646970667358221220607787cea08d15d851d58cc1e20d11341db8f8a49f9b82d90726e817a132dab364736f6c634300081c0033",
  "linkReferences": {},
  "deployedLinkReferences": {}
}